:020000040000FA
:100000000C945D000C9485000C9485000C94850084
:100010000C9485000C9485000C9485000C9485004C
:100020000C9485000C9485000C9485000C9485003C
:100030000C9485000C9485000C9485000C9485002C
:100040000C948A030C9485000C94FA030C94D4034A
:100050000C9485000C9485000C9485000C9485000C
:100060000C9485000C94850000000008000201003B
:100070000003040700000000000000000000000072
:10008000250028002B0000000000240027002A0083
:10009000040404040404040402020202020203032E
:1000A0000303030301020408102040800102040836
:1000B0001020010204081020400411241FBECFEFBD
:1000C000D8E0DEBFCDBF11E0A0E0B1E0EEE5FEE09C
:1000D00002C005900D92A431B107D9F721E0A4E147
:1000E000B1E001C01D92A43CB207E1F710E0CDE5FC
:1000F000D0E004C02197FE010E942707CC35D1072C
:10010000C9F70E94D9040C942D070C94000090E0CC
:10011000FC01EC55FF4F249180579F4FFC018491C7
:10012000882399F090E0880F991FFC01EA57FF4F50
:10013000A591B491FC01E458FF4F859194918FB73C
:10014000F894EC91E22BEC938FBF089590E0FC01C2
:10015000E859FF4F2491FC01EC55FF4F3491FC010D
:10016000E057FF4FE491EE23C9F0222339F023300A
:1001700001F1A8F4213019F1223029F1F0E0EE0F5D
:10018000FF1FE458FF4FA591B4918FB7F894EC91FD
:10019000611126C030953E233C938FBF08952730D0
:1001A000A9F02830C9F0243049F7809180008F7D74
:1001B00003C0809180008F7780938000DFCF84B56B
:1001C0008F7784BDDBCF84B58F7DFBCF8091B0006E
:1001D0008F778093B000D2CF8091B0008F7DF9CF20
:1001E0003E2BDACFCF93DF9360E08CE00E94A60035
:1001F00060E088E00E94A600C7E0D0E060E084E014
:100200000E94A6008091BA0190E00C2E02C0959544
:1002100087950A94E2F761E080FF60E088E00E9441
:10022000A60061E084E00E94A600219738F761E013
:100230008CE0DF91CF910C94A6003FB7F8948091A9
:10024000190190911A01A0911B01B0911C0126B5D2
:10025000A89B05C02F3F19F00196A11DB11D3FBFFE
:10026000BA2FA92F982F8827BC01CD01620F711DCD
:10027000811D911D42E0660F771F881F991F4A95C7
:10028000D1F708958F929F92AF92BF92CF92DF9253
:10029000EF92FF924B015C010E941D016B017C01FA
:1002A0000E941D016C197D098E099F09683E7340EB
:1002B00081059105A8F321E0821A9108A108B108EF
:1002C00088EEC80E83E0D81EE11CF11C8114910455
:1002D000A104B10429F7FF90EF90DF90CF90BF9079
:1002E000AF909F908F900895AF92BF92CF92DF9280
:1002F000EF92FF920F931F93CF93DF936C017B01DB
:100300008B01040F151FEB015E01AE18BF08C0176B
:10031000D10759F06991D601ED91FC910190F081DE
:10032000E02DC6010995892B79F7C501DF91CF91A1
:100330001F910F91FF90EF90DF90CF90BF90AF9003
:100340000895FC01538D448D252F30E0842F90E0DB
:10035000821B930B541710F0CF96089501970895C0
:10036000FC01918D828D981761F0A28DAE0FBF2F89
:10037000B11D5D968C91928D9F5F9F73928F90E0DF
:1003800008958FEF9FEF0895FC01918D828D98174E
:1003900031F0828DE80FF11D858D90E008958FEF8B
:1003A0009FEF0895FC01918D228D892F90E0805C54
:1003B0009F4F821B91098F73992708958DE191E0DA
:1003C0000E94D20121E0892B09F420E0822F0895B8
:1003D00080E090E0892B29F00E94DE0181110C94CD
:1003E00000000895FC01A48DA80FB92FB11DA35AD8
:1003F000BF4F2C91848D90E001968F739927848F45
:10040000A689B7892C93A089B1898C918370806467
:100410008C93938D848D981306C00288F389E02D08
:1004200080818F7D80830895EF92FF920F931F93B9
:10043000CF93DF93EC0181E0888F9B8D8C8D981397
:100440001AC0E889F989808185FF15C09FB7F894A3
:10045000EE89FF896083E889F989808183708064EF
:1004600080839FBF81E090E0DF91CF911F910F913A
:10047000FF90EF900895F62E0B8D10E00F5F1F4F49
:100480000F731127E02E8C8D8E110CC00FB607FC58
:10049000FACFE889F989808185FFF5CFCE010E94E6
:1004A000F201F1CFEB8DEC0FFD2FF11DE35AFF4F61
:1004B000F0829FB7F8940B8FEA89FB898081806274
:1004C000CFCFCF93DF93EC01888D8823B9F0AA8931
:1004D000BB89E889F9898C9185FD03C0808186FDFF
:1004E0000DC00FB607FCF7CF8C9185FFF2CF80814E
:1004F00085FFEDCFCE010E94F201E9CFDF91CF91D0
:100500000895FC018081823061F018F4813031F06F
:100510000895833049F0843049F008956093B30022
:1005200008956093B400089567BD089568BD089567
:10053000FC018081823069F028F423E092E0813070
:1005400051F00895833011F126E090E0843019F0E5
:10055000089524E091E06230E1F0643079F1613097
:1005600009F03FC041E050E0BA0101C0660F9A9522
:10057000EAF78091BA01862B01C0440F2A95EAF769
:10058000409548234093BA010C94F20027E095E08F
:10059000E2CF41E050E0BA0102C0660F771F9A95A2
:1005A000E2F7CB0180959091BA01892301C0440FF5
:1005B0002A95EAF7842B8093BA01E6CF41E050E018
:1005C000FA0102C0EE0FFF1F9A95E2F7CF0101C0BA
:1005D000440F2A95EAF7842B80959091BA018923DC
:1005E000EACF089564E082EC91E00E94980264E012
:1005F00080EC91E00E94980264E08EEB91E00E9412
:10060000980264E08CEB91E00C949802CF93C09137
:1006100000016C2F82EC91E00E94810262E082EC8A
:1006200091E00E9498026C2F80EC91E00E94810280
:1006300062E080EC91E00E9498026C2F8EEB91E0DA
:100640000E94810261E08EEB91E00E9498026C2F83
:100650008CEB91E00E94810261E08CEB91E0CF9104
:100660000C949802CF93C09100016C2F82EC91E022
:100670000E94810261E082EC91E00E9498026C2F5E
:1006800080EC91E00E94810261E080EC91E00E94A8
:1006900098026C2F8EEB91E00E94810262E08EEB5B
:1006A00091E00E9498026C2F8CEB91E00E948102F5
:1006B00062E08CEB91E0CF910C949802CF93C091C3
:1006C00000016C2F82EC91E00E94810261E082ECDB
:1006D00091E00E9498026C2F80EC91E00E948102D0
:1006E00061E080EC91E00E9498026C2F8EEB91E02B
:1006F0000E94810261E08EEB91E00E9498026C2FD3
:100700008CEB91E00E94810261E08CEB91E0CF9153
:100710000C9498021F920F920FB60F9211242F93F0
:100720003F938F939F93AF93BF93809115019091C7
:100730001601A0911701B09118013091140123E026
:10074000230F2D3758F50196A11DB11D20931401DB
:100750008093150190931601A0931701B09318018F
:100760008091190190911A01A0911B01B0911C0177
:100770000196A11DB11D8093190190931A01A093B8
:100780001B01B0931C01BF91AF919F918F913F913D
:100790002F910F900FBE0F901F90189526E8230FF2
:1007A0000296A11DB11DD2CF1F920F920FB60F92CC
:1007B00011242F933F934F935F936F937F938F9366
:1007C0009F93AF93BF93EF93FF938DE191E00E94CE
:1007D000F201FF91EF91BF91AF919F918F917F9126
:1007E0006F915F914F913F912F910F900FBE0F909E
:1007F0001F9018951F920F920FB60F9211242F93EE
:100800008F939F93EF93FF93E0912D01F0912E0131
:100810008081E0913301F091340182FD1BC0908111
:10082000809136018F5F8F7320913701821741F0DD
:10083000E0913601F0E0E35EFE4F958F8093360144
:10084000FF91EF919F918F912F910F900FBE0F907D
:100850001F9018958081F4CF8CE00E94870087E07C
:100860000E94870088E00E94870084E00E94870041
:100870001092BA010E94F20060E087E00C94A6009A
:10088000EF92FF920F931F93CF93EDE1F1E013826C
:10089000128288EE93E0A0E0B0E084839583A68383
:1008A000B78386E091E09183808385EC90E0958723
:1008B000848784EC90E09787868780EC90E0918B2A
:1008C000808B81EC90E0938B828B82EC90E0958B17
:1008D000848B86EC90E0978B868B118E128E138E14
:1008E000148E1092BB01E2ECF1E081E08083C4E061
:1008F000C1830E942C048091BA01837F8093BA0146
:100900000E94F20000EB10E0F80180818368808390
:1009100081EBE82EF12CF701C0831092B3008BE03D
:100920000E948700E0ECF1E082E08083C1830E94B6
:100930002C048091BA018D7E8093BA010E94F2004E
:10094000F801808183628083F701C0831092B40034
:1009500083E00E948700EEEBF1E013E01083118347
:100960000E942C048091BA018F758093BA010E9475
:10097000F20084B5836884BD17BC86E00E948700BE
:10098000ECEBF1E0C08311830E942C048091BA014A
:100990008E7B8093BA010E94F20084B5836284BD8D
:1009A00018BC85E0CF911F910F91FF90EF900C94B0
:1009B0008700CF93DF931F92CDB7DEB7789484B5CD
:1009C000826084BD84B5816084BD85B5826085BD4B
:1009D00085B5816085BD80916E00816080936E00D9
:1009E00010928100809181008260809381008091CB
:1009F000810081608093810080918000816080937C
:100A000080008091B10084608093B1008091B0003B
:100A100081608093B00080917A00846080937A0036
:100A200080917A00826080937A0080917A00816060
:100A300080937A0080917A00806880937A00109287
:100A4000C100E0912D01F0912E0182E08083E091C0
:100A50002901F0912A011082E0912B01F0912C01E3
:100A60008FEC808310923501E0913101F0913201D9
:100A700086E08083E0912F01F091300180818061D8
:100A80008083E0912F01F091300180818860808324
:100A9000E0912F01F0913001808180688083E091A6
:100AA0002F01F091300180818F7D808388248A948A
:100AB000912C40EFE42EF12C5CEDC52ED12C68EC8E
:100AC000A62EB12C8CE8282E312C98E7492E512CDB
:100AD00024E6622E712C8DE191E00E94D20118165D
:100AE00019060CF059C08DE191E00E94B0018033ED
:100AF00061F410920101109200019DEA980F92306A
:100B000008F0FFC00E94F20247C0813329F47092BE
:100B1000010160920001F1CF823329F4509201016A
:100B200040920001EACF833329F4309201012092F0
:100B30000001E3CF20EA30E08433E9F024EB30E039
:100B40008533C9F0863329F4B0920101A0920001E7
:100B5000D4CF873329F4D0920101C0920001CDCFC8
:100B6000883329F4F0920101E0920001C6CF893365
:100B700039F425EF30E03093010120930001BDCF1F
:100B8000813729F49092010180920001B6CF86341A
:100B900009F01BC10E945E0380E090E0892B09F4FC
:100BA0009ACF0E94DE01882309F48CCF0E940000B6
:100BB00089CF8C3419F40E943203EECF823519F4B8
:100BC0000E940603E9CF873499F500910001109146
:100BD0000101602F82EC91E00E94810261E082ECD1
:100BE00091E00E949802602F80EC91E00E948102C7
:100BF00061E080EC91E00E949802C80163E070E03F
:100C00000E94FF06162F612F8EEB91E00E94810259
:100C100061E08EEB91E00E949802612F8CEB91E0F5
:100C20000E94810261E08CEB91E00E949802B4CFB7
:100C30008934F1F41091000190910101812F63E05A
:100C400070E00E94FF06062F82EC91E00E94810274
:100C500061E082EC91E00E949802602F80EC91E0CC
:100C60000E94810261E080EC91E00E949802CBCF6B
:100C7000883479F50091000110910101602F82EC18
:100C800091E00E94810262E082EC91E00E94980271
:100C9000602F80EC91E00E94810262E080EC91E0A4
:100CA0000E949802C80163E070E00E94FF06162FC0
:100CB000612F8EEB91E00E94810262E08EEB91E069
:100CC0000E949802612F8CEB91E00E94810262E009
:100CD000AACF8A3409F011CF10910001909101013F
:100CE000812F63E070E00E94FF06062F82EC91E006
:100CF0000E94810262E082EC91E00E949802602FE3
:100D000074C08B34B1F404E010E00E94320366E951
:100D100070E080E090E00E9442010E94060366E9D4
:100D200070E080E090E00E9442010150110969F7F3
:100D3000E9CE803541F5309100013983632F82EC93
:100D400091E00E94810261E082EC91E00E949802B1
:100D5000698180EC91E00E94810261E080EC91E089
:100D60000E94980264E08EEB91E00E94980264E099
:100D70008CEB91E00E94980260ED77E080E090E0DB
:100D80000E944201BFCE8E3409F006CF0E945E035E
:100D900060E971E080E090E00E9442010E9432032D
:100DA00068EC70E080E090E00E9442010E945E03E7
:100DB00060E971E080E090E00E9442010E94060339
:100DC00068EC70E080E090E0DBCF823409F0F1CE97
:100DD00010910001612F82EC91E00E94810262E09B
:100DE00082EC91E00E949802612F80EC91E00E94D9
:100DF000810262E080EC91E00E94980259CF97FB5B
:100E0000072E16F4009407D077FD09D00E9413072F
:100E100007FC05D03EF4909581959F4F08957095FD
:100E200061957F4F0895AA1BBB1B51E107C0AA1F04
:100E3000BB1FA617B70710F0A61BB70B881F991F7B
:100E40005A95A9F780959095BC01CD010895EE0FB4
:100E5000FF1F0590F491E02D0994F894FFCFFF0057
:100E60000000000014027401A1016102D201B0016E
:020E7000C401BB
:107E0000112484B714BE81FFF0D085E080938100F7
:107E100082E08093C00088E18093C10086E0809377
:107E2000C20080E18093C4008EE0C9D0259A86E02C
:107E300020E33CEF91E0309385002093840096BBD3
:107E4000B09BFECF1D9AA8958150A9F7CC24DD24C4
:107E500088248394B5E0AB2EA1E19A2EF3E0BF2EE7
:107E6000A2D0813461F49FD0082FAFD0023811F036
:107E7000013811F484E001C083E08DD089C08234E0
:107E800011F484E103C0853419F485E0A6D080C0E4
:107E9000853579F488D0E82EFF2485D0082F10E0AE
:107EA000102F00270E291F29000F111F8ED06801E7
:107EB0006FC0863521F484E090D080E0DECF843638
:107EC00009F040C070D06FD0082F6DD080E0C81688
:107ED00080E7D80618F4F601B7BEE895C0E0D1E017
:107EE00062D089930C17E1F7F0E0CF16F0E7DF06D8
:107EF00018F0F601B7BEE89568D007B600FCFDCFD4
:107F0000A601A0E0B1E02C9130E011968C91119780
:107F100090E0982F8827822B932B1296FA010C0160
:107F200087BEE89511244E5F5F4FF1E0A038BF0790
:107F300051F7F601A7BEE89507B600FCFDCF97BE46
:107F4000E89526C08437B1F42ED02DD0F82E2BD052
:107F50003CD0F601EF2C8F010F5F1F4F84911BD097
:107F6000EA94F801C1F70894C11CD11CFA94CF0C13
:107F7000D11C0EC0853739F428D08EE10CD085E9AC
:107F80000AD08FE07ACF813511F488E018D01DD067
:107F900080E101D065CF982F8091C00085FFFCCF94
:107FA0009093C60008958091C00087FFFCCF809118
:107FB000C00084FD01C0A8958091C6000895E0E648
:107FC000F0E098E1908380830895EDDF803219F02E
:107FD00088E0F5DFFFCF84E1DECF1F93182FE3DFCA
:107FE0001150E9F7F2DF1F91089580E0E8DFEE27F6
:047FF000FF270994CA
:027FFE00040479
:00000001FF
